{
  "contracts/AreaCalculator.sol": {
    "AreaCalculator": {
      "abi": [
        {
          "inputs": [],
          "name": "calculate_area",
          "outputs": [
            {
              "internalType": "uint256",
              "name": "",
              "type": "uint256"
            }
          ],
          "stateMutability": "view",
          "type": "function"
        },
        {
          "inputs": [
            {
              "internalType": "uint256",
              "name": "_length",
              "type": "uint256"
            },
            {
              "internalType": "uint256",
              "name": "_width",
              "type": "uint256"
            }
          ],
          "name": "rectangle",
          "outputs": [
            {
              "internalType": "uint256",
              "name": "",
              "type": "uint256"
            }
          ],
          "stateMutability": "nonpayable",
          "type": "function"
        },
        {
          "inputs": [
            {
              "internalType": "uint256",
              "name": "_valueOfSide",
              "type": "uint256"
            }
          ],
          "name": "square",
          "outputs": [
            {
              "internalType": "uint256",
              "name": "",
              "type": "uint256"
            }
          ],
          "stateMutability": "nonpayable",
          "type": "function"
        },
        {
          "inputs": [
            {
              "internalType": "uint256",
              "name": "_base",
              "type": "uint256"
            },
            {
              "internalType": "uint256",
              "name": "_height",
              "type": "uint256"
            }
          ],
          "name": "triangle",
          "outputs": [
            {
              "internalType": "uint256",
              "name": "",
              "type": "uint256"
            }
          ],
          "stateMutability": "nonpayable",
          "type": "function"
        }
      ],
      "evm": {
        "bytecode": {
          "linkReferences": {},
          "object": "608060405234801561001057600080fd5b506104d2806100206000396000f3fe608060405234801561001057600080fd5b506004361061004c5760003560e01c806344767548146100515780637b29290914610081578063e967095e146100b1578063fb347c8e146100cf575b600080fd5b61006b600480360381019061006691906101a9565b6100ff565b60405161007891906101f8565b60405180910390f35b61009b60048036038101906100969190610213565b61011e565b6040516100a891906101f8565b60405180910390f35b6100b961013d565b6040516100c691906101f8565b60405180910390f35b6100e960048036038101906100e491906101a9565b610143565b6040516100f691906101f8565b60405180910390f35b6000818361010d919061026f565b600081905550600054905092915050565b600060028261012d91906103f1565b6000819055506000549050919050565b60005481565b600060028284610153919061026f565b61015d919061046b565b600081905550600054905092915050565b600080fd5b6000819050919050565b61018681610173565b811461019157600080fd5b50565b6000813590506101a38161017d565b92915050565b600080604083850312156101c0576101bf61016e565b5b60006101ce85828601610194565b92505060206101df85828601610194565b9150509250929050565b6101f281610173565b82525050565b600060208201905061020d60008301846101e9565b92915050565b6000602082840312156102295761022861016e565b5b600061023784828501610194565b91505092915050565b7f4e487b7100000000000000000000000000000000000000000000000000000000600052601160045260246000fd5b600061027a82610173565b915061028583610173565b925082820261029381610173565b915082820484148315176102aa576102a9610240565b5b5092915050565b60008160011c9050919050565b6000808291508390505b6001851115610308578086048111156102e4576102e3610240565b5b60018516156102f35780820291505b8081029050610301856102b1565b94506102c8565b94509492505050565b60008261032157600190506103dd565b8161032f57600090506103dd565b8160018114610345576002811461034f5761037e565b60019150506103dd565b60ff84111561036157610360610240565b5b8360020a91508482111561037857610377610240565b5b506103dd565b5060208310610133831016604e8410600b84101617156103b35782820a9050838111156103ae576103ad610240565b5b6103dd565b6103c084848460016102be565b925090508184048111156103d7576103d6610240565b5b81810290505b9392505050565b600060ff82169050919050565b60006103fc82610173565b9150610407836103e4565b92506104347fffffffffffffffffffffffffffffffffffffffffffffffffffffffffffffffff8484610311565b905092915050565b7f4e487b7100000000000000000000000000000000000000000000000000000000600052601260045260246000fd5b600061047682610173565b915061048183610173565b9250826104915761049061043c565b5b82820490509291505056fea26469706673582212207529a8c44b181dc35646a2d8a3417c03c0a6681c497f716bb42ad2ff7a71540e64736f6c63430008180033",
          "opcodes": "PUSH1 0x80 PUSH1 0x40 MSTORE CALLVALUE DUP1 ISZERO PUSH2 0x10 JUMPI PUSH1 0x0 DUP1 REVERT JUMPDEST POP PUSH2 0x4D2 DUP1 PUSH2 0x20 PUSH1 0x0 CODECOPY PUSH1 0x0 RETURN INVALID PUSH1 0x80 PUSH1 0x40 MSTORE CALLVALUE DUP1 ISZERO PUSH2 0x10 JUMPI PUSH1 0x0 DUP1 REVERT JUMPDEST POP PUSH1 0x4 CALLDATASIZE LT PUSH2 0x4C JUMPI PUSH1 0x0 CALLDATALOAD PUSH1 0xE0 SHR DUP1 PUSH4 0x44767548 EQ PUSH2 0x51 JUMPI DUP1 PUSH4 0x7B292909 EQ PUSH2 0x81 JUMPI DUP1 PUSH4 0xE967095E EQ PUSH2 0xB1 JUMPI DUP1 PUSH4 0xFB347C8E EQ PUSH2 0xCF JUMPI JUMPDEST PUSH1 0x0 DUP1 REVERT JUMPDEST PUSH2 0x6B PUSH1 0x4 DUP1 CALLDATASIZE SUB DUP2 ADD SWAP1 PUSH2 0x66 SWAP2 SWAP1 PUSH2 0x1A9 JUMP JUMPDEST PUSH2 0xFF JUMP JUMPDEST PUSH1 0x40 MLOAD PUSH2 0x78 SWAP2 SWAP1 PUSH2 0x1F8 JUMP JUMPDEST PUSH1 0x40 MLOAD DUP1 SWAP2 SUB SWAP1 RETURN JUMPDEST PUSH2 0x9B PUSH1 0x4 DUP1 CALLDATASIZE SUB DUP2 ADD SWAP1 PUSH2 0x96 SWAP2 SWAP1 PUSH2 0x213 JUMP JUMPDEST PUSH2 0x11E JUMP JUMPDEST PUSH1 0x40 MLOAD PUSH2 0xA8 SWAP2 SWAP1 PUSH2 0x1F8 JUMP JUMPDEST PUSH1 0x40 MLOAD DUP1 SWAP2 SUB SWAP1 RETURN JUMPDEST PUSH2 0xB9 PUSH2 0x13D JUMP JUMPDEST PUSH1 0x40 MLOAD PUSH2 0xC6 SWAP2 SWAP1 PUSH2 0x1F8 JUMP JUMPDEST PUSH1 0x40 MLOAD DUP1 SWAP2 SUB SWAP1 RETURN JUMPDEST PUSH2 0xE9 PUSH1 0x4 DUP1 CALLDATASIZE SUB DUP2 ADD SWAP1 PUSH2 0xE4 SWAP2 SWAP1 PUSH2 0x1A9 JUMP JUMPDEST PUSH2 0x143 JUMP JUMPDEST PUSH1 0x40 MLOAD PUSH2 0xF6 SWAP2 SWAP1 PUSH2 0x1F8 JUMP JUMPDEST PUSH1 0x40 MLOAD DUP1 SWAP2 SUB SWAP1 RETURN JUMPDEST PUSH1 0x0 DUP2 DUP4 PUSH2 0x10D SWAP2 SWAP1 PUSH2 0x26F JUMP JUMPDEST PUSH1 0x0 DUP2 SWAP1 SSTORE POP PUSH1 0x0 SLOAD SWAP1 POP SWAP3 SWAP2 POP POP JUMP JUMPDEST PUSH1 0x0 PUSH1 0x2 DUP3 PUSH2 0x12D SWAP2 SWAP1 PUSH2 0x3F1 JUMP JUMPDEST PUSH1 0x0 DUP2 SWAP1 SSTORE POP PUSH1 0x0 SLOAD SWAP1 POP SWAP2 SWAP1 POP JUMP JUMPDEST PUSH1 0x0 SLOAD DUP2 JUMP JUMPDEST PUSH1 0x0 PUSH1 0x2 DUP3 DUP5 PUSH2 0x153 SWAP2 SWAP1 PUSH2 0x26F JUMP JUMPDEST PUSH2 0x15D SWAP2 SWAP1 PUSH2 0x46B JUMP JUMPDEST PUSH1 0x0 DUP2 SWAP1 SSTORE POP PUSH1 0x0 SLOAD SWAP1 POP SWAP3 SWAP2 POP POP JUMP JUMPDEST PUSH1 0x0 DUP1 REVERT JUMPDEST PUSH1 0x0 DUP2 SWAP1 POP SWAP2 SWAP1 POP JUMP JUMPDEST PUSH2 0x186 DUP2 PUSH2 0x173 JUMP JUMPDEST DUP2 EQ PUSH2 0x191 JUMPI PUSH1 0x0 DUP1 REVERT JUMPDEST POP JUMP JUMPDEST PUSH1 0x0 DUP2 CALLDATALOAD SWAP1 POP PUSH2 0x1A3 DUP2 PUSH2 0x17D JUMP JUMPDEST SWAP3 SWAP2 POP POP JUMP JUMPDEST PUSH1 0x0 DUP1 PUSH1 0x40 DUP4 DUP6 SUB SLT ISZERO PUSH2 0x1C0 JUMPI PUSH2 0x1BF PUSH2 0x16E JUMP JUMPDEST JUMPDEST PUSH1 0x0 PUSH2 0x1CE DUP6 DUP3 DUP7 ADD PUSH2 0x194 JUMP JUMPDEST SWAP3 POP POP PUSH1 0x20 PUSH2 0x1DF DUP6 DUP3 DUP7 ADD PUSH2 0x194 JUMP JUMPDEST SWAP2 POP POP SWAP3 POP SWAP3 SWAP1 POP JUMP JUMPDEST PUSH2 0x1F2 DUP2 PUSH2 0x173 JUMP JUMPDEST DUP3 MSTORE POP POP JUMP JUMPDEST PUSH1 0x0 PUSH1 0x20 DUP3 ADD SWAP1 POP PUSH2 0x20D PUSH1 0x0 DUP4 ADD DUP5 PUSH2 0x1E9 JUMP JUMPDEST SWAP3 SWAP2 POP POP JUMP JUMPDEST PUSH1 0x0 PUSH1 0x20 DUP3 DUP5 SUB SLT ISZERO PUSH2 0x229 JUMPI PUSH2 0x228 PUSH2 0x16E JUMP JUMPDEST JUMPDEST PUSH1 0x0 PUSH2 0x237 DUP5 DUP3 DUP6 ADD PUSH2 0x194 JUMP JUMPDEST SWAP2 POP POP SWAP3 SWAP2 POP POP JUMP JUMPDEST PUSH32 0x4E487B7100000000000000000000000000000000000000000000000000000000 PUSH1 0x0 MSTORE PUSH1 0x11 PUSH1 0x4 MSTORE PUSH1 0x24 PUSH1 0x0 REVERT JUMPDEST PUSH1 0x0 PUSH2 0x27A DUP3 PUSH2 0x173 JUMP JUMPDEST SWAP2 POP PUSH2 0x285 DUP4 PUSH2 0x173 JUMP JUMPDEST SWAP3 POP DUP3 DUP3 MUL PUSH2 0x293 DUP2 PUSH2 0x173 JUMP JUMPDEST SWAP2 POP DUP3 DUP3 DIV DUP5 EQ DUP4 ISZERO OR PUSH2 0x2AA JUMPI PUSH2 0x2A9 PUSH2 0x240 JUMP JUMPDEST JUMPDEST POP SWAP3 SWAP2 POP POP JUMP JUMPDEST PUSH1 0x0 DUP2 PUSH1 0x1 SHR SWAP1 POP SWAP2 SWAP1 POP JUMP JUMPDEST PUSH1 0x0 DUP1 DUP3 SWAP2 POP DUP4 SWAP1 POP JUMPDEST PUSH1 0x1 DUP6 GT ISZERO PUSH2 0x308 JUMPI DUP1 DUP7 DIV DUP2 GT ISZERO PUSH2 0x2E4 JUMPI PUSH2 0x2E3 PUSH2 0x240 JUMP JUMPDEST JUMPDEST PUSH1 0x1 DUP6 AND ISZERO PUSH2 0x2F3 JUMPI DUP1 DUP3 MUL SWAP2 POP JUMPDEST DUP1 DUP2 MUL SWAP1 POP PUSH2 0x301 DUP6 PUSH2 0x2B1 JUMP JUMPDEST SWAP5 POP PUSH2 0x2C8 JUMP JUMPDEST SWAP5 POP SWAP5 SWAP3 POP POP POP JUMP JUMPDEST PUSH1 0x0 DUP3 PUSH2 0x321 JUMPI PUSH1 0x1 SWAP1 POP PUSH2 0x3DD JUMP JUMPDEST DUP2 PUSH2 0x32F JUMPI PUSH1 0x0 SWAP1 POP PUSH2 0x3DD JUMP JUMPDEST DUP2 PUSH1 0x1 DUP2 EQ PUSH2 0x345 JUMPI PUSH1 0x2 DUP2 EQ PUSH2 0x34F JUMPI PUSH2 0x37E JUMP JUMPDEST PUSH1 0x1 SWAP2 POP POP PUSH2 0x3DD JUMP JUMPDEST PUSH1 0xFF DUP5 GT ISZERO PUSH2 0x361 JUMPI PUSH2 0x360 PUSH2 0x240 JUMP JUMPDEST JUMPDEST DUP4 PUSH1 0x2 EXP SWAP2 POP DUP5 DUP3 GT ISZERO PUSH2 0x378 JUMPI PUSH2 0x377 PUSH2 0x240 JUMP JUMPDEST JUMPDEST POP PUSH2 0x3DD JUMP JUMPDEST POP PUSH1 0x20 DUP4 LT PUSH2 0x133 DUP4 LT AND PUSH1 0x4E DUP5 LT PUSH1 0xB DUP5 LT AND OR ISZERO PUSH2 0x3B3 JUMPI DUP3 DUP3 EXP SWAP1 POP DUP4 DUP2 GT ISZERO PUSH2 0x3AE JUMPI PUSH2 0x3AD PUSH2 0x240 JUMP JUMPDEST JUMPDEST PUSH2 0x3DD JUMP JUMPDEST PUSH2 0x3C0 DUP5 DUP5 DUP5 PUSH1 0x1 PUSH2 0x2BE JUMP JUMPDEST SWAP3 POP SWAP1 POP DUP2 DUP5 DIV DUP2 GT ISZERO PUSH2 0x3D7 JUMPI PUSH2 0x3D6 PUSH2 0x240 JUMP JUMPDEST JUMPDEST DUP2 DUP2 MUL SWAP1 POP JUMPDEST SWAP4 SWAP3 POP POP POP JUMP JUMPDEST PUSH1 0x0 PUSH1 0xFF DUP3 AND SWAP1 POP SWAP2 SWAP1 POP JUMP JUMPDEST PUSH1 0x0 PUSH2 0x3FC DUP3 PUSH2 0x173 JUMP JUMPDEST SWAP2 POP PUSH2 0x407 DUP4 PUSH2 0x3E4 JUMP JUMPDEST SWAP3 POP PUSH2 0x434 PUSH32 0xFFFFFFFFFFFFFFFFFFFFFFFFFFFFFFFFFFFFFFFFFFFFFFFFFFFFFFFFFFFFFFFF DUP5 DUP5 PUSH2 0x311 JUMP JUMPDEST SWAP1 POP SWAP3 SWAP2 POP POP JUMP JUMPDEST PUSH32 0x4E487B7100000000000000000000000000000000000000000000000000000000 PUSH1 0x0 MSTORE PUSH1 0x12 PUSH1 0x4 MSTORE PUSH1 0x24 PUSH1 0x0 REVERT JUMPDEST PUSH1 0x0 PUSH2 0x476 DUP3 PUSH2 0x173 JUMP JUMPDEST SWAP2 POP PUSH2 0x481 DUP4 PUSH2 0x173 JUMP JUMPDEST SWAP3 POP DUP3 PUSH2 0x491 JUMPI PUSH2 0x490 PUSH2 0x43C JUMP JUMPDEST JUMPDEST DUP3 DUP3 DIV SWAP1 POP SWAP3 SWAP2 POP POP JUMP INVALID LOG2 PUSH5 0x6970667358 0x22 SLT KECCAK256 PUSH22 0x29A8C44B181DC35646A2D8A3417C03C0A6681C497F71 PUSH12 0xB42AD2FF7A71540E64736F6C PUSH4 0x43000818 STOP CALLER "
        },
        "methodIdentifiers": {
          "calculate_area()": "e967095e",
          "rectangle(uint256,uint256)": "44767548",
          "square(uint256)": "7b292909",
          "triangle(uint256,uint256)": "fb347c8e"
        }
      }
    }
  }
}