{
  "_format": "hh-sol-artifact-1",
  "contractName": "AreaCalculator",
  "sourceName": "contracts/AreaCalculator.sol",
  "abi": [
    {
      "inputs": [],
      "name": "calculate_area",
      "outputs": [
        {
          "internalType": "uint256",
          "name": "",
          "type": "uint256"
        }
      ],
      "stateMutability": "view",
      "type": "function"
    },
    {
      "inputs": [
        {
          "internalType": "uint256",
          "name": "_length",
          "type": "uint256"
        },
        {
          "internalType": "uint256",
          "name": "_width",
          "type": "uint256"
        }
      ],
      "name": "rectangle",
      "outputs": [
        {
          "internalType": "uint256",
          "name": "",
          "type": "uint256"
        }
      ],
      "stateMutability": "nonpayable",
      "type": "function"
    },
    {
      "inputs": [
        {
          "internalType": "uint256",
          "name": "_valueOfSide",
          "type": "uint256"
        }
      ],
      "name": "square",
      "outputs": [
        {
          "internalType": "uint256",
          "name": "",
          "type": "uint256"
        }
      ],
      "stateMutability": "nonpayable",
      "type": "function"
    },
    {
      "inputs": [
        {
          "internalType": "uint256",
          "name": "_base",
          "type": "uint256"
        },
        {
          "internalType": "uint256",
          "name": "_height",
          "type": "uint256"
        }
      ],
      "name": "triangle",
      "outputs": [
        {
          "internalType": "uint256",
          "name": "",
          "type": "uint256"
        }
      ],
      "stateMutability": "nonpayable",
      "type": "function"
    }
  ],
  "bytecode": "0x608060405234801561001057600080fd5b506104d2806100206000396000f3fe608060405234801561001057600080fd5b506004361061004c5760003560e01c806344767548146100515780637b29290914610081578063e967095e146100b1578063fb347c8e146100cf575b600080fd5b61006b600480360381019061006691906101a9565b6100ff565b60405161007891906101f8565b60405180910390f35b61009b60048036038101906100969190610213565b61011e565b6040516100a891906101f8565b60405180910390f35b6100b961013d565b6040516100c691906101f8565b60405180910390f35b6100e960048036038101906100e491906101a9565b610143565b6040516100f691906101f8565b60405180910390f35b6000818361010d919061026f565b600081905550600054905092915050565b600060028261012d91906103f1565b6000819055506000549050919050565b60005481565b600060028284610153919061026f565b61015d919061046b565b600081905550600054905092915050565b600080fd5b6000819050919050565b61018681610173565b811461019157600080fd5b50565b6000813590506101a38161017d565b92915050565b600080604083850312156101c0576101bf61016e565b5b60006101ce85828601610194565b92505060206101df85828601610194565b9150509250929050565b6101f281610173565b82525050565b600060208201905061020d60008301846101e9565b92915050565b6000602082840312156102295761022861016e565b5b600061023784828501610194565b91505092915050565b7f4e487b7100000000000000000000000000000000000000000000000000000000600052601160045260246000fd5b600061027a82610173565b915061028583610173565b925082820261029381610173565b915082820484148315176102aa576102a9610240565b5b5092915050565b60008160011c9050919050565b6000808291508390505b6001851115610308578086048111156102e4576102e3610240565b5b60018516156102f35780820291505b8081029050610301856102b1565b94506102c8565b94509492505050565b60008261032157600190506103dd565b8161032f57600090506103dd565b8160018114610345576002811461034f5761037e565b60019150506103dd565b60ff84111561036157610360610240565b5b8360020a91508482111561037857610377610240565b5b506103dd565b5060208310610133831016604e8410600b84101617156103b35782820a9050838111156103ae576103ad610240565b5b6103dd565b6103c084848460016102be565b925090508184048111156103d7576103d6610240565b5b81810290505b9392505050565b600060ff82169050919050565b60006103fc82610173565b9150610407836103e4565b92506104347fffffffffffffffffffffffffffffffffffffffffffffffffffffffffffffffff8484610311565b905092915050565b7f4e487b7100000000000000000000000000000000000000000000000000000000600052601260045260246000fd5b600061047682610173565b915061048183610173565b9250826104915761049061043c565b5b82820490509291505056fea26469706673582212207529a8c44b181dc35646a2d8a3417c03c0a6681c497f716bb42ad2ff7a71540e64736f6c63430008180033",
  "linkReferences": {},
  "deployedLinkReferences": {}
}